{
  "contractName": "YoYoToken",
  "abi": [
    {
      "inputs": [],
      "stateMutability": "nonpayable",
      "type": "constructor"
    },
    {
      "anonymous": false,
      "inputs": [
        {
          "indexed": true,
          "internalType": "address",
          "name": "owner",
          "type": "address"
        },
        {
          "indexed": true,
          "internalType": "address",
          "name": "approved",
          "type": "address"
        },
        {
          "indexed": true,
          "internalType": "uint256",
          "name": "tokenId",
          "type": "uint256"
        }
      ],
      "name": "Approval",
      "type": "event"
    },
    {
      "anonymous": false,
      "inputs": [
        {
          "indexed": true,
          "internalType": "address",
          "name": "owner",
          "type": "address"
        },
        {
          "indexed": true,
          "internalType": "address",
          "name": "operator",
          "type": "address"
        },
        {
          "indexed": false,
          "internalType": "bool",
          "name": "approved",
          "type": "bool"
        }
      ],
      "name": "ApprovalForAll",
      "type": "event"
    },
    {
      "anonymous": false,
      "inputs": [
        {
          "indexed": true,
          "internalType": "address",
          "name": "previousOwner",
          "type": "address"
        },
        {
          "indexed": true,
          "internalType": "address",
          "name": "newOwner",
          "type": "address"
        }
      ],
      "name": "OwnershipTransferred",
      "type": "event"
    },
    {
      "anonymous": false,
      "inputs": [
        {
          "indexed": false,
          "internalType": "address",
          "name": "account",
          "type": "address"
        }
      ],
      "name": "Paused",
      "type": "event"
    },
    {
      "anonymous": false,
      "inputs": [
        {
          "indexed": true,
          "internalType": "bytes32",
          "name": "role",
          "type": "bytes32"
        },
        {
          "indexed": true,
          "internalType": "address",
          "name": "account",
          "type": "address"
        },
        {
          "indexed": true,
          "internalType": "address",
          "name": "sender",
          "type": "address"
        }
      ],
      "name": "RoleGranted",
      "type": "event"
    },
    {
      "anonymous": false,
      "inputs": [
        {
          "indexed": true,
          "internalType": "bytes32",
          "name": "role",
          "type": "bytes32"
        },
        {
          "indexed": true,
          "internalType": "address",
          "name": "account",
          "type": "address"
        },
        {
          "indexed": true,
          "internalType": "address",
          "name": "sender",
          "type": "address"
        }
      ],
      "name": "RoleRevoked",
      "type": "event"
    },
    {
      "anonymous": false,
      "inputs": [
        {
          "indexed": true,
          "internalType": "address",
          "name": "from",
          "type": "address"
        },
        {
          "indexed": true,
          "internalType": "address",
          "name": "to",
          "type": "address"
        },
        {
          "indexed": true,
          "internalType": "uint256",
          "name": "tokenId",
          "type": "uint256"
        }
      ],
      "name": "Transfer",
      "type": "event"
    },
    {
      "anonymous": false,
      "inputs": [
        {
          "indexed": false,
          "internalType": "address",
          "name": "account",
          "type": "address"
        }
      ],
      "name": "Unpaused",
      "type": "event"
    },
    {
      "inputs": [],
      "name": "DEFAULT_ADMIN_ROLE",
      "outputs": [
        {
          "internalType": "bytes32",
          "name": "",
          "type": "bytes32"
        }
      ],
      "stateMutability": "view",
      "type": "function",
      "constant": true
    },
    {
      "inputs": [],
      "name": "MINTER_ROLE",
      "outputs": [
        {
          "internalType": "bytes32",
          "name": "",
          "type": "bytes32"
        }
      ],
      "stateMutability": "view",
      "type": "function",
      "constant": true
    },
    {
      "inputs": [],
      "name": "PAUSER_ROLE",
      "outputs": [
        {
          "internalType": "bytes32",
          "name": "",
          "type": "bytes32"
        }
      ],
      "stateMutability": "view",
      "type": "function",
      "constant": true
    },
    {
      "inputs": [
        {
          "internalType": "address",
          "name": "to",
          "type": "address"
        },
        {
          "internalType": "uint256",
          "name": "tokenId",
          "type": "uint256"
        }
      ],
      "name": "approve",
      "outputs": [],
      "stateMutability": "nonpayable",
      "type": "function"
    },
    {
      "inputs": [
        {
          "internalType": "address",
          "name": "owner",
          "type": "address"
        }
      ],
      "name": "balanceOf",
      "outputs": [
        {
          "internalType": "uint256",
          "name": "",
          "type": "uint256"
        }
      ],
      "stateMutability": "view",
      "type": "function",
      "constant": true
    },
    {
      "inputs": [],
      "name": "baseURI",
      "outputs": [
        {
          "internalType": "string",
          "name": "",
          "type": "string"
        }
      ],
      "stateMutability": "view",
      "type": "function",
      "constant": true
    },
    {
      "inputs": [
        {
          "internalType": "uint256",
          "name": "tokenId",
          "type": "uint256"
        }
      ],
      "name": "burn",
      "outputs": [],
      "stateMutability": "nonpayable",
      "type": "function"
    },
    {
      "inputs": [
        {
          "internalType": "uint256",
          "name": "tokenId",
          "type": "uint256"
        }
      ],
      "name": "getApproved",
      "outputs": [
        {
          "internalType": "address",
          "name": "",
          "type": "address"
        }
      ],
      "stateMutability": "view",
      "type": "function",
      "constant": true
    },
    {
      "inputs": [
        {
          "internalType": "bytes32",
          "name": "role",
          "type": "bytes32"
        }
      ],
      "name": "getRoleAdmin",
      "outputs": [
        {
          "internalType": "bytes32",
          "name": "",
          "type": "bytes32"
        }
      ],
      "stateMutability": "view",
      "type": "function",
      "constant": true
    },
    {
      "inputs": [
        {
          "internalType": "bytes32",
          "name": "role",
          "type": "bytes32"
        },
        {
          "internalType": "uint256",
          "name": "index",
          "type": "uint256"
        }
      ],
      "name": "getRoleMember",
      "outputs": [
        {
          "internalType": "address",
          "name": "",
          "type": "address"
        }
      ],
      "stateMutability": "view",
      "type": "function",
      "constant": true
    },
    {
      "inputs": [
        {
          "internalType": "bytes32",
          "name": "role",
          "type": "bytes32"
        }
      ],
      "name": "getRoleMemberCount",
      "outputs": [
        {
          "internalType": "uint256",
          "name": "",
          "type": "uint256"
        }
      ],
      "stateMutability": "view",
      "type": "function",
      "constant": true
    },
    {
      "inputs": [
        {
          "internalType": "bytes32",
          "name": "role",
          "type": "bytes32"
        },
        {
          "internalType": "address",
          "name": "account",
          "type": "address"
        }
      ],
      "name": "grantRole",
      "outputs": [],
      "stateMutability": "nonpayable",
      "type": "function"
    },
    {
      "inputs": [
        {
          "internalType": "bytes32",
          "name": "role",
          "type": "bytes32"
        },
        {
          "internalType": "address",
          "name": "account",
          "type": "address"
        }
      ],
      "name": "hasRole",
      "outputs": [
        {
          "internalType": "bool",
          "name": "",
          "type": "bool"
        }
      ],
      "stateMutability": "view",
      "type": "function",
      "constant": true
    },
    {
      "inputs": [
        {
          "internalType": "address",
          "name": "owner",
          "type": "address"
        },
        {
          "internalType": "address",
          "name": "operator",
          "type": "address"
        }
      ],
      "name": "isApprovedForAll",
      "outputs": [
        {
          "internalType": "bool",
          "name": "",
          "type": "bool"
        }
      ],
      "stateMutability": "view",
      "type": "function",
      "constant": true
    },
    {
      "inputs": [],
      "name": "name",
      "outputs": [
        {
          "internalType": "string",
          "name": "",
          "type": "string"
        }
      ],
      "stateMutability": "view",
      "type": "function",
      "constant": true
    },
    {
      "inputs": [],
      "name": "owner",
      "outputs": [
        {
          "internalType": "address",
          "name": "",
          "type": "address"
        }
      ],
      "stateMutability": "view",
      "type": "function",
      "constant": true
    },
    {
      "inputs": [
        {
          "internalType": "uint256",
          "name": "tokenId",
          "type": "uint256"
        }
      ],
      "name": "ownerOf",
      "outputs": [
        {
          "internalType": "address",
          "name": "",
          "type": "address"
        }
      ],
      "stateMutability": "view",
      "type": "function",
      "constant": true
    },
    {
      "inputs": [],
      "name": "pause",
      "outputs": [],
      "stateMutability": "nonpayable",
      "type": "function"
    },
    {
      "inputs": [],
      "name": "paused",
      "outputs": [
        {
          "internalType": "bool",
          "name": "",
          "type": "bool"
        }
      ],
      "stateMutability": "view",
      "type": "function",
      "constant": true
    },
    {
      "inputs": [],
      "name": "renounceOwnership",
      "outputs": [],
      "stateMutability": "nonpayable",
      "type": "function"
    },
    {
      "inputs": [
        {
          "internalType": "bytes32",
          "name": "role",
          "type": "bytes32"
        },
        {
          "internalType": "address",
          "name": "account",
          "type": "address"
        }
      ],
      "name": "renounceRole",
      "outputs": [],
      "stateMutability": "nonpayable",
      "type": "function"
    },
    {
      "inputs": [
        {
          "internalType": "bytes32",
          "name": "role",
          "type": "bytes32"
        },
        {
          "internalType": "address",
          "name": "account",
          "type": "address"
        }
      ],
      "name": "revokeRole",
      "outputs": [],
      "stateMutability": "nonpayable",
      "type": "function"
    },
    {
      "inputs": [
        {
          "internalType": "address",
          "name": "from",
          "type": "address"
        },
        {
          "internalType": "address",
          "name": "to",
          "type": "address"
        },
        {
          "internalType": "uint256",
          "name": "tokenId",
          "type": "uint256"
        }
      ],
      "name": "safeTransferFrom",
      "outputs": [],
      "stateMutability": "nonpayable",
      "type": "function"
    },
    {
      "inputs": [
        {
          "internalType": "address",
          "name": "from",
          "type": "address"
        },
        {
          "internalType": "address",
          "name": "to",
          "type": "address"
        },
        {
          "internalType": "uint256",
          "name": "tokenId",
          "type": "uint256"
        },
        {
          "internalType": "bytes",
          "name": "_data",
          "type": "bytes"
        }
      ],
      "name": "safeTransferFrom",
      "outputs": [],
      "stateMutability": "nonpayable",
      "type": "function"
    },
    {
      "inputs": [
        {
          "internalType": "address",
          "name": "operator",
          "type": "address"
        },
        {
          "internalType": "bool",
          "name": "approved",
          "type": "bool"
        }
      ],
      "name": "setApprovalForAll",
      "outputs": [],
      "stateMutability": "nonpayable",
      "type": "function"
    },
    {
      "inputs": [
        {
          "internalType": "bytes4",
          "name": "interfaceId",
          "type": "bytes4"
        }
      ],
      "name": "supportsInterface",
      "outputs": [
        {
          "internalType": "bool",
          "name": "",
          "type": "bool"
        }
      ],
      "stateMutability": "view",
      "type": "function",
      "constant": true
    },
    {
      "inputs": [],
      "name": "symbol",
      "outputs": [
        {
          "internalType": "string",
          "name": "",
          "type": "string"
        }
      ],
      "stateMutability": "view",
      "type": "function",
      "constant": true
    },
    {
      "inputs": [
        {
          "internalType": "uint256",
          "name": "index",
          "type": "uint256"
        }
      ],
      "name": "tokenByIndex",
      "outputs": [
        {
          "internalType": "uint256",
          "name": "",
          "type": "uint256"
        }
      ],
      "stateMutability": "view",
      "type": "function",
      "constant": true
    },
    {
      "inputs": [
        {
          "internalType": "address",
          "name": "owner",
          "type": "address"
        },
        {
          "internalType": "uint256",
          "name": "index",
          "type": "uint256"
        }
      ],
      "name": "tokenOfOwnerByIndex",
      "outputs": [
        {
          "internalType": "uint256",
          "name": "",
          "type": "uint256"
        }
      ],
      "stateMutability": "view",
      "type": "function",
      "constant": true
    },
    {
      "inputs": [
        {
          "internalType": "uint256",
          "name": "tokenId",
          "type": "uint256"
        }
      ],
      "name": "tokenURI",
      "outputs": [
        {
          "internalType": "string",
          "name": "",
          "type": "string"
        }
      ],
      "stateMutability": "view",
      "type": "function",
      "constant": true
    },
    {
      "inputs": [],
      "name": "totalSupply",
      "outputs": [
        {
          "internalType": "uint256",
          "name": "",
          "type": "uint256"
        }
      ],
      "stateMutability": "view",
      "type": "function",
      "constant": true
    },
    {
      "inputs": [
        {
          "internalType": "address",
          "name": "from",
          "type": "address"
        },
        {
          "internalType": "address",
          "name": "to",
          "type": "address"
        },
        {
          "internalType": "uint256",
          "name": "tokenId",
          "type": "uint256"
        }
      ],
      "name": "transferFrom",
      "outputs": [],
      "stateMutability": "nonpayable",
      "type": "function"
    },
    {
      "inputs": [
        {
          "internalType": "address",
          "name": "newOwner",
          "type": "address"
        }
      ],
      "name": "transferOwnership",
      "outputs": [],
      "stateMutability": "nonpayable",
      "type": "function"
    },
    {
      "inputs": [],
      "name": "unpause",
      "outputs": [],
      "stateMutability": "nonpayable",
      "type": "function"
    },
    {
      "inputs": [
        {
          "internalType": "address",
          "name": "to",
          "type": "address"
        }
      ],
      "name": "mint",
      "outputs": [],
      "stateMutability": "nonpayable",
      "type": "function"
    },
    {
      "inputs": [
        {
          "internalType": "string",
          "name": "ipfsHash",
          "type": "string"
        }
      ],
      "name": "mint",
      "outputs": [],
      "stateMutability": "nonpayable",
      "type": "function"
    },
    {
      "inputs": [
        {
          "internalType": "uint256",
          "name": "tokenId",
          "type": "uint256"
        }
      ],
      "name": "exists",
      "outputs": [
        {
          "internalType": "bool",
          "name": "",
          "type": "bool"
        }
      ],
      "stateMutability": "view",
      "type": "function",
      "constant": true
    }
  ],
  "bytecode": "0x60806040523480156200001157600080fd5b506040518060400160405280600b81526020017f596f596f596f546f6b656e0000000000000000000000000000000000000000008152506040518060400160405280600481526020017f594f594f000000000000000000000000000000000000000000000000000000008152506040518060400160405280601c81526020017f68747470733a2f2f697066732e696e667572612e696f2f697066732f000000008152508282620000ce6301ffc9a760e01b6200030060201b60201c565b8160079080519060200190620000e6929190620005bb565b508060089080519060200190620000ff929190620005bb565b50620001186380ac58cd60e01b6200030060201b60201c565b62000130635b5e139f60e01b6200030060201b60201c565b6200014863780e9d6360e01b6200030060201b60201c565b50506000600b60006101000a81548160ff021916908315150217905550620001896000801b6200017d6200040960201b60201c565b6200041160201b60201c565b620001df60405180807f4d494e5445525f524f4c45000000000000000000000000000000000000000000815250600b0190506040518091039020620001d36200040960201b60201c565b6200041160201b60201c565b6200023560405180807f5041555345525f524f4c45000000000000000000000000000000000000000000815250600b0190506040518091039020620002296200040960201b60201c565b6200041160201b60201c565b62000246816200042760201b60201c565b50505060006200025b6200040960201b60201c565b905080600d60006101000a81548173ffffffffffffffffffffffffffffffffffffffff021916908373ffffffffffffffffffffffffffffffffffffffff1602179055508073ffffffffffffffffffffffffffffffffffffffff16600073ffffffffffffffffffffffffffffffffffffffff167f8be0079c531659141344cd1fd0a4f28419497f9722a3daafe3b4186f6b6457e060405160405180910390a3506200066a565b63ffffffff60e01b817bffffffffffffffffffffffffffffffffffffffffffffffffffffffff191614156200039d576040517f08c379a000000000000000000000000000000000000000000000000000000000815260040180806020018281038252601c8152602001807f4552433136353a20696e76616c696420696e746572666163652069640000000081525060200191505060405180910390fd5b6001806000837bffffffffffffffffffffffffffffffffffffffffffffffffffffffff19167bffffffffffffffffffffffffffffffffffffffffffffffffffffffff1916815260200190815260200160002060006101000a81548160ff02191690831515021790555050565b600033905090565b6200042382826200044360201b60201c565b5050565b80600a90805190602001906200043f929190620005bb565b5050565b6200047181600080858152602001908152602001600020600001620004e660201b620024c21790919060201c565b15620004e257620004876200040960201b60201c565b73ffffffffffffffffffffffffffffffffffffffff168173ffffffffffffffffffffffffffffffffffffffff16837f2f8788117e7eff1d82e926ec794901d17c78024a50270940304540a733656f0d60405160405180910390a45b5050565b600062000516836000018373ffffffffffffffffffffffffffffffffffffffff1660001b6200051e60201b60201c565b905092915050565b60006200053283836200059860201b60201c565b6200058d57826000018290806001815401808255809150506001900390600052602060002001600090919091909150558260000180549050836001016000848152602001908152602001600020819055506001905062000592565b600090505b92915050565b600080836001016000848152602001908152602001600020541415905092915050565b828054600181600116156101000203166002900490600052602060002090601f016020900481019282601f10620005fe57805160ff19168380011785556200062f565b828001600101855582156200062f579182015b828111156200062e57825182559160200191906001019062000611565b5b5090506200063e919062000642565b5090565b6200066791905b808211156200066357600081600090555060010162000649565b5090565b90565b61428b806200067a6000396000f3fe608060405234801561001057600080fd5b50600436106102275760003560e01c80636c0360eb11610130578063a22cb465116100b8578063d547741f1161007c578063d547741f14610cb2578063d85d3d2714610d00578063e63ab1e914610dbb578063e985e9c514610dd9578063f2fde38b14610e5557610227565b8063a22cb46514610a56578063b88d4fde14610aa6578063c87b56dd14610bab578063ca15c87314610c52578063d539139314610c9457610227565b80638da5cb5b116100ff5780638da5cb5b1461088d5780639010d07c146108d757806391d148541461094f57806395d89b41146109b5578063a217fddf14610a3857610227565b80636c0360eb1461079e57806370a0823114610821578063715018a6146108795780638456cb591461088357610227565b806336568abe116101b35780634f558e79116101825780634f558e79146106425780634f6ccce7146106885780635c975abb146106ca5780636352211e146106ec5780636a6278421461075a57610227565b806336568abe1461054e5780633f4ba83a1461059c57806342842e0e146105a657806342966c681461061457610227565b806318160ddd116101fa57806318160ddd146103d057806323b872dd146103ee578063248a9ca31461045c5780632f2ff15d1461049e5780632f745c59146104ec57610227565b806301ffc9a71461022c57806306fdde0314610291578063081812fc14610314578063095ea7b314610382575b600080fd5b6102776004803603602081101561024257600080fd5b8101908080357bffffffffffffffffffffffffffffffffffffffffffffffffffffffff19169060200190929190505050610e99565b604051808215151515815260200191505060405180910390f35b610299610f01565b6040518080602001828103825283818151815260200191508051906020019080838360005b838110156102d95780820151818401526020810190506102be565b50505050905090810190601f1680156103065780820380516001836020036101000a031916815260200191505b509250505060405180910390f35b6103406004803603602081101561032a57600080fd5b8101908080359060200190929190505050610fa3565b604051808273ffffffffffffffffffffffffffffffffffffffff1673ffffffffffffffffffffffffffffffffffffffff16815260200191505060405180910390f35b6103ce6004803603604081101561039857600080fd5b81019080803573ffffffffffffffffffffffffffffffffffffffff1690602001909291908035906020019092919050505061103e565b005b6103d8611182565b6040518082815260200191505060405180910390f35b61045a6004803603606081101561040457600080fd5b81019080803573ffffffffffffffffffffffffffffffffffffffff169060200190929190803573ffffffffffffffffffffffffffffffffffffffff16906020019092919080359060200190929190505050611193565b005b6104886004803603602081101561047257600080fd5b8101908080359060200190929190505050611209565b6040518082815260200191505060405180910390f35b6104ea600480360360408110156104b457600080fd5b8101908080359060200190929190803573ffffffffffffffffffffffffffffffffffffffff169060200190929190505050611228565b005b6105386004803603604081101561050257600080fd5b81019080803573ffffffffffffffffffffffffffffffffffffffff169060200190929190803590602001909291905050506112b1565b6040518082815260200191505060405180910390f35b61059a6004803603604081101561056457600080fd5b8101908080359060200190929190803573ffffffffffffffffffffffffffffffffffffffff16906020019092919050505061130c565b005b6105a46113a5565b005b610612600480360360608110156105bc57600080fd5b81019080803573ffffffffffffffffffffffffffffffffffffffff169060200190929190803573ffffffffffffffffffffffffffffffffffffffff1690602001909291908035906020019092919050505061144a565b005b6106406004803603602081101561062a57600080fd5b810190808035906020019092919050505061146a565b005b61066e6004803603602081101561065857600080fd5b81019080803590602001909291905050506114dc565b604051808215151515815260200191505060405180910390f35b6106b46004803603602081101561069e57600080fd5b81019080803590602001909291905050506114ee565b6040518082815260200191505060405180910390f35b6106d2611511565b604051808215151515815260200191505060405180910390f35b6107186004803603602081101561070257600080fd5b8101908080359060200190929190505050611528565b604051808273ffffffffffffffffffffffffffffffffffffffff1673ffffffffffffffffffffffffffffffffffffffff16815260200191505060405180910390f35b61079c6004803603602081101561077057600080fd5b81019080803573ffffffffffffffffffffffffffffffffffffffff16906020019092919050505061155f565b005b6107a661161a565b6040518080602001828103825283818151815260200191508051906020019080838360005b838110156107e65780820151818401526020810190506107cb565b50505050905090810190601f1680156108135780820380516001836020036101000a031916815260200191505b509250505060405180910390f35b6108636004803603602081101561083757600080fd5b81019080803573ffffffffffffffffffffffffffffffffffffffff1690602001909291905050506116bc565b6040518082815260200191505060405180910390f35b610881611791565b005b61088b61191c565b005b6108956119c1565b604051808273ffffffffffffffffffffffffffffffffffffffff1673ffffffffffffffffffffffffffffffffffffffff16815260200191505060405180910390f35b61090d600480360360408110156108ed57600080fd5b8101908080359060200190929190803590602001909291905050506119eb565b604051808273ffffffffffffffffffffffffffffffffffffffff1673ffffffffffffffffffffffffffffffffffffffff16815260200191505060405180910390f35b61099b6004803603604081101561096557600080fd5b8101908080359060200190929190803573ffffffffffffffffffffffffffffffffffffffff169060200190929190505050611a1c565b604051808215151515815260200191505060405180910390f35b6109bd611a4d565b6040518080602001828103825283818151815260200191508051906020019080838360005b838110156109fd5780820151818401526020810190506109e2565b50505050905090810190601f168015610a2a5780820380516001836020036101000a031916815260200191505b509250505060405180910390f35b610a40611aef565b6040518082815260200191505060405180910390f35b610aa460048036036040811015610a6c57600080fd5b81019080803573ffffffffffffffffffffffffffffffffffffffff169060200190929190803515159060200190929190505050611af6565b005b610ba960048036036080811015610abc57600080fd5b81019080803573ffffffffffffffffffffffffffffffffffffffff169060200190929190803573ffffffffffffffffffffffffffffffffffffffff1690602001909291908035906020019092919080359060200190640100000000811115610b2357600080fd5b820183602082011115610b3557600080fd5b80359060200191846001830284011164010000000083111715610b5757600080fd5b91908080601f016020809104026020016040519081016040528093929190818152602001838380828437600081840152601f19601f820116905080830192505050505050509192919290505050611cae565b005b610bd760048036036020811015610bc157600080fd5b8101908080359060200190929190505050611d26565b6040518080602001828103825283818151815260200191508051906020019080838360005b83811015610c17578082015181840152602081019050610bfc565b50505050905090810190601f168015610c445780820380516001836020036101000a031916815260200191505b509250505060405180910390f35b610c7e60048036036020811015610c6857600080fd5b810190808035906020019092919050505061200f565b6040518082815260200191505060405180910390f35b610c9c612035565b6040518082815260200191505060405180910390f35b610cfe60048036036040811015610cc857600080fd5b8101908080359060200190929190803573ffffffffffffffffffffffffffffffffffffffff16906020019092919050505061206e565b005b610db960048036036020811015610d1657600080fd5b8101908080359060200190640100000000811115610d3357600080fd5b820183602082011115610d4557600080fd5b80359060200191846001830284011164010000000083111715610d6757600080fd5b91908080601f016020809104026020016040519081016040528093929190818152602001838380828437600081840152601f19601f8201169050808301925050505050505091929192905050506120f7565b005b610dc36121e5565b6040518082815260200191505060405180910390f35b610e3b60048036036040811015610def57600080fd5b81019080803573ffffffffffffffffffffffffffffffffffffffff169060200190929190803573ffffffffffffffffffffffffffffffffffffffff16906020019092919050505061221e565b604051808215151515815260200191505060405180910390f35b610e9760048036036020811015610e6b57600080fd5b81019080803573ffffffffffffffffffffffffffffffffffffffff1690602001909291905050506122b2565b005b600060016000837bffffffffffffffffffffffffffffffffffffffffffffffffffffffff19167bffffffffffffffffffffffffffffffffffffffffffffffffffffffff1916815260200190815260200160002060009054906101000a900460ff169050919050565b606060078054600181600116156101000203166002900480601f016020809104026020016040519081016040528092919081815260200182805460018160011615610100020316600290048015610f995780601f10610f6e57610100808354040283529160200191610f99565b820191906000526020600020905b815481529060010190602001808311610f7c57829003601f168201915b5050505050905090565b6000610fae826124f2565b611003576040517f08c379a000000000000000000000000000000000000000000000000000000000815260040180806020018281038252602c815260200180614078602c913960400191505060405180910390fd5b6005600083815260200190815260200160002060009054906101000a900473ffffffffffffffffffffffffffffffffffffffff169050919050565b600061104982611528565b90508073ffffffffffffffffffffffffffffffffffffffff168373ffffffffffffffffffffffffffffffffffffffff1614156110d0576040517f08c379a00000000000000000000000000000000000000000000000000000000081526004018080602001828103825260218152602001806141286021913960400191505060405180910390fd5b8073ffffffffffffffffffffffffffffffffffffffff166110ef61250f565b73ffffffffffffffffffffffffffffffffffffffff16148061111e575061111d8161111861250f565b61221e565b5b611173576040517f08c379a0000000000000000000000000000000000000000000000000000000008152600401808060200182810382526038815260200180613fcb6038913960400191505060405180910390fd5b61117d8383612517565b505050565b600061118e60036125d0565b905090565b6111a461119e61250f565b826125e5565b6111f9576040517f08c379a00000000000000000000000000000000000000000000000000000000081526004018080602001828103825260318152602001806141496031913960400191505060405180910390fd5b6112048383836126d9565b505050565b6000806000838152602001908152602001600020600201549050919050565b61124e6000808481526020019081526020016000206002015461124961250f565b611a1c565b6112a3576040517f08c379a000000000000000000000000000000000000000000000000000000000815260040180806020018281038252602f815260200180613e86602f913960400191505060405180910390fd5b6112ad828261291c565b5050565b600061130482600260008673ffffffffffffffffffffffffffffffffffffffff1673ffffffffffffffffffffffffffffffffffffffff1681526020019081526020016000206129af90919063ffffffff16565b905092915050565b61131461250f565b73ffffffffffffffffffffffffffffffffffffffff168173ffffffffffffffffffffffffffffffffffffffff1614611397576040517f08c379a000000000000000000000000000000000000000000000000000000000815260040180806020018281038252602f815260200180614227602f913960400191505060405180910390fd5b6113a182826129c9565b5050565b6113eb60405180807f5041555345525f524f4c45000000000000000000000000000000000000000000815250600b01905060405180910390206113e661250f565b611a1c565b611440576040517f08c379a00000000000000000000000000000000000000000000000000000000081526004018080602001828103825260408152602001806141e76040913960400191505060405180910390fd5b611448612a5c565b565b61146583838360405180602001604052806000815250611cae565b505050565b61147b61147561250f565b826125e5565b6114d0576040517f08c379a00000000000000000000000000000000000000000000000000000000081526004018080602001828103825260308152602001806141b76030913960400191505060405180910390fd5b6114d981612b65565b50565b60006114e7826124f2565b9050919050565b600080611505836003612c9f90919063ffffffff16565b50905080915050919050565b6000600b60009054906101000a900460ff16905090565b60006115588260405180606001604052806029815260200161402d602991396003612cce9092919063ffffffff16565b9050919050565b6115a560405180807f4d494e5445525f524f4c45000000000000000000000000000000000000000000815250600b01905060405180910390206115a061250f565b611a1c565b6115fa576040517f08c379a000000000000000000000000000000000000000000000000000000000815260040180806020018281038252603d81526020018061417a603d913960400191505060405180910390fd5b61160d81611608600c612ced565b612cfb565b611617600c612eef565b50565b6060600a8054600181600116156101000203166002900480601f0160208091040260200160405190810160405280929190818152602001828054600181600116156101000203166002900480156116b25780601f10611687576101008083540402835291602001916116b2565b820191906000526020600020905b81548152906001019060200180831161169557829003601f168201915b5050505050905090565b60008073ffffffffffffffffffffffffffffffffffffffff168273ffffffffffffffffffffffffffffffffffffffff161415611743576040517f08c379a000000000000000000000000000000000000000000000000000000000815260040180806020018281038252602a815260200180614003602a913960400191505060405180910390fd5b61178a600260008473ffffffffffffffffffffffffffffffffffffffff1673ffffffffffffffffffffffffffffffffffffffff168152602001908152602001600020612f05565b9050919050565b61179961250f565b73ffffffffffffffffffffffffffffffffffffffff16600d60009054906101000a900473ffffffffffffffffffffffffffffffffffffffff1673ffffffffffffffffffffffffffffffffffffffff161461185b576040517f08c379a00000000000000000000000000000000000000000000000000000000081526004018080602001828103825260208152602001807f4f776e61626c653a2063616c6c6572206973206e6f7420746865206f776e657281525060200191505060405180910390fd5b600073ffffffffffffffffffffffffffffffffffffffff16600d60009054906101000a900473ffffffffffffffffffffffffffffffffffffffff1673ffffffffffffffffffffffffffffffffffffffff167f8be0079c531659141344cd1fd0a4f28419497f9722a3daafe3b4186f6b6457e060405160405180910390a36000600d60006101000a81548173ffffffffffffffffffffffffffffffffffffffff021916908373ffffffffffffffffffffffffffffffffffffffff160217905550565b61196260405180807f5041555345525f524f4c45000000000000000000000000000000000000000000815250600b019050604051809103902061195d61250f565b611a1c565b6119b7576040517f08c379a000000000000000000000000000000000000000000000000000000000815260040180806020018281038252603e815260200180613f0d603e913960400191505060405180910390fd5b6119bf612f1a565b565b6000600d60009054906101000a900473ffffffffffffffffffffffffffffffffffffffff16905090565b6000611a148260008086815260200190815260200160002060000161302490919063ffffffff16565b905092915050565b6000611a458260008086815260200190815260200160002060000161303e90919063ffffffff16565b905092915050565b606060088054600181600116156101000203166002900480601f016020809104026020016040519081016040528092919081815260200182805460018160011615610100020316600290048015611ae55780601f10611aba57610100808354040283529160200191611ae5565b820191906000526020600020905b815481529060010190602001808311611ac857829003601f168201915b5050505050905090565b6000801b81565b611afe61250f565b73ffffffffffffffffffffffffffffffffffffffff168273ffffffffffffffffffffffffffffffffffffffff161415611b9f576040517f08c379a00000000000000000000000000000000000000000000000000000000081526004018080602001828103825260198152602001807f4552433732313a20617070726f766520746f2063616c6c65720000000000000081525060200191505060405180910390fd5b8060066000611bac61250f565b73ffffffffffffffffffffffffffffffffffffffff1673ffffffffffffffffffffffffffffffffffffffff16815260200190815260200160002060008473ffffffffffffffffffffffffffffffffffffffff1673ffffffffffffffffffffffffffffffffffffffff16815260200190815260200160002060006101000a81548160ff0219169083151502179055508173ffffffffffffffffffffffffffffffffffffffff16611c5961250f565b73ffffffffffffffffffffffffffffffffffffffff167f17307eab39ab6107e8899845ad3d59bd9653f200f220920489ca2b5937696c3183604051808215151515815260200191505060405180910390a35050565b611cbf611cb961250f565b836125e5565b611d14576040517f08c379a00000000000000000000000000000000000000000000000000000000081526004018080602001828103825260318152602001806141496031913960400191505060405180910390fd5b611d208484848461306e565b50505050565b6060611d31826124f2565b611d86576040517f08c379a000000000000000000000000000000000000000000000000000000000815260040180806020018281038252602f8152602001806140f9602f913960400191505060405180910390fd5b6060600960008481526020019081526020016000208054600181600116156101000203166002900480601f016020809104026020016040519081016040528092919081815260200182805460018160011615610100020316600290048015611e2f5780601f10611e0457610100808354040283529160200191611e2f565b820191906000526020600020905b815481529060010190602001808311611e1257829003601f168201915b505050505090506000600a8054600181600116156101000203166002900490501415611e5e578091505061200a565b600081511115611f3757600a816040516020018083805460018160011615610100020316600290048015611ec95780601f10611ea7576101008083540402835291820191611ec9565b820191906000526020600020905b815481529060010190602001808311611eb5575b505082805190602001908083835b60208310611efa5780518252602082019150602081019050602083039250611ed7565b6001836020036101000a0380198251168184511680821785525050505050509050019250505060405160208183030381529060405291505061200a565b600a611f42846130e0565b6040516020018083805460018160011615610100020316600290048015611fa05780601f10611f7e576101008083540402835291820191611fa0565b820191906000526020600020905b815481529060010190602001808311611f8c575b505082805190602001908083835b60208310611fd15780518252602082019150602081019050602083039250611fae565b6001836020036101000a038019825116818451168082178552505050505050905001925050506040516020818303038152906040529150505b919050565b600061202e600080848152602001908152602001600020600001613227565b9050919050565b60405180807f4d494e5445525f524f4c45000000000000000000000000000000000000000000815250600b019050604051809103902081565b6120946000808481526020019081526020016000206002015461208f61250f565b611a1c565b6120e9576040517f08c379a0000000000000000000000000000000000000000000000000000000008152600401808060200182810382526030815260200180613f9b6030913960400191505060405180910390fd5b6120f382826129c9565b5050565b6120ff61250f565b73ffffffffffffffffffffffffffffffffffffffff16600d60009054906101000a900473ffffffffffffffffffffffffffffffffffffffff1673ffffffffffffffffffffffffffffffffffffffff16146121c1576040517f08c379a00000000000000000000000000000000000000000000000000000000081526004018080602001828103825260208152602001807f4f776e61626c653a2063616c6c6572206973206e6f7420746865206f776e657281525060200191505060405180910390fd5b60006121cb611182565b90506121d73382612cfb565b6121e1818361323c565b5050565b60405180807f5041555345525f524f4c45000000000000000000000000000000000000000000815250600b019050604051809103902081565b6000600660008473ffffffffffffffffffffffffffffffffffffffff1673ffffffffffffffffffffffffffffffffffffffff16815260200190815260200160002060008373ffffffffffffffffffffffffffffffffffffffff1673ffffffffffffffffffffffffffffffffffffffff16815260200190815260200160002060009054906101000a900460ff16905092915050565b6122ba61250f565b73ffffffffffffffffffffffffffffffffffffffff16600d60009054906101000a900473ffffffffffffffffffffffffffffffffffffffff1673ffffffffffffffffffffffffffffffffffffffff161461237c576040517f08c379a00000000000000000000000000000000000000000000000000000000081526004018080602001828103825260208152602001807f4f776e61626c653a2063616c6c6572206973206e6f7420746865206f776e657281525060200191505060405180910390fd5b600073ffffffffffffffffffffffffffffffffffffffff168173ffffffffffffffffffffffffffffffffffffffff161415612402576040517f08c379a0000000000000000000000000000000000000000000000000000000008152600401808060200182810382526026815260200180613ee76026913960400191505060405180910390fd5b8073ffffffffffffffffffffffffffffffffffffffff16600d60009054906101000a900473ffffffffffffffffffffffffffffffffffffffff1673ffffffffffffffffffffffffffffffffffffffff167f8be0079c531659141344cd1fd0a4f28419497f9722a3daafe3b4186f6b6457e060405160405180910390a380600d60006101000a81548173ffffffffffffffffffffffffffffffffffffffff021916908373ffffffffffffffffffffffffffffffffffffffff16021790555050565b60006124ea836000018373ffffffffffffffffffffffffffffffffffffffff1660001b6132c6565b905092915050565b600061250882600361333690919063ffffffff16565b9050919050565b600033905090565b816005600083815260200190815260200160002060006101000a81548173ffffffffffffffffffffffffffffffffffffffff021916908373ffffffffffffffffffffffffffffffffffffffff160217905550808273ffffffffffffffffffffffffffffffffffffffff1661258a83611528565b73ffffffffffffffffffffffffffffffffffffffff167f8c5be1e5ebec7d5bd14f71427d1e84f3dd0314c0f7b2291e5b200ac8c7c3b92560405160405180910390a45050565b60006125de82600001613350565b9050919050565b60006125f0826124f2565b612645576040517f08c379a000000000000000000000000000000000000000000000000000000000815260040180806020018281038252602c815260200180613f6f602c913960400191505060405180910390fd5b600061265083611528565b90508073ffffffffffffffffffffffffffffffffffffffff168473ffffffffffffffffffffffffffffffffffffffff1614806126bf57508373ffffffffffffffffffffffffffffffffffffffff166126a784610fa3565b73ffffffffffffffffffffffffffffffffffffffff16145b806126d057506126cf818561221e565b5b91505092915050565b8273ffffffffffffffffffffffffffffffffffffffff166126f982611528565b73ffffffffffffffffffffffffffffffffffffffff1614612765576040517f08c379a00000000000000000000000000000000000000000000000000000000081526004018080602001828103825260298152602001806140d06029913960400191505060405180910390fd5b600073ffffffffffffffffffffffffffffffffffffffff168273ffffffffffffffffffffffffffffffffffffffff1614156127eb576040517f08c379a0000000000000000000000000000000000000000000000000000000008152600401808060200182810382526024815260200180613f4b6024913960400191505060405180910390fd5b6127f6838383613361565b612801600082612517565b61285281600260008673ffffffffffffffffffffffffffffffffffffffff1673ffffffffffffffffffffffffffffffffffffffff16815260200190815260200160002061337190919063ffffffff16565b506128a481600260008573ffffffffffffffffffffffffffffffffffffffff1673ffffffffffffffffffffffffffffffffffffffff16815260200190815260200160002061338b90919063ffffffff16565b506128bb818360036133a59092919063ffffffff16565b50808273ffffffffffffffffffffffffffffffffffffffff168473ffffffffffffffffffffffffffffffffffffffff167fddf252ad1be2c89b69c2b068fc378daa952ba7f163c4a11628f55a4df523b3ef60405160405180910390a4505050565b612943816000808581526020019081526020016000206000016124c290919063ffffffff16565b156129ab5761295061250f565b73ffffffffffffffffffffffffffffffffffffffff168173ffffffffffffffffffffffffffffffffffffffff16837f2f8788117e7eff1d82e926ec794901d17c78024a50270940304540a733656f0d60405160405180910390a45b5050565b60006129be83600001836133da565b60001c905092915050565b6129f08160008085815260200190815260200160002060000161345d90919063ffffffff16565b15612a58576129fd61250f565b73ffffffffffffffffffffffffffffffffffffffff168173ffffffffffffffffffffffffffffffffffffffff16837ff6391f5c32d9c69d2a47ea670b442974b53935d1edc7fd64eb21e047a839171b60405160405180910390a45b5050565b600b60009054906101000a900460ff16612ade576040517f08c379a00000000000000000000000000000000000000000000000000000000081526004018080602001828103825260148152602001807f5061757361626c653a206e6f742070617573656400000000000000000000000081525060200191505060405180910390fd5b6000600b60006101000a81548160ff0219169083151502179055507f5db9ee0a495bf2e6ff9c91a7834c1ba4fdd244a5e8aa4e537bd38aeae4b073aa612b2261250f565b604051808273ffffffffffffffffffffffffffffffffffffffff1673ffffffffffffffffffffffffffffffffffffffff16815260200191505060405180910390a1565b6000612b7082611528565b9050612b7e81600084613361565b612b89600083612517565b60006009600084815260200190815260200160002080546001816001161561010002031660029004905014612bd857600960008381526020019081526020016000206000612bd79190613d4b565b5b612c2982600260008473ffffffffffffffffffffffffffffffffffffffff1673ffffffffffffffffffffffffffffffffffffffff16815260200190815260200160002061337190919063ffffffff16565b50612c3e82600361348d90919063ffffffff16565b5081600073ffffffffffffffffffffffffffffffffffffffff168273ffffffffffffffffffffffffffffffffffffffff167fddf252ad1be2c89b69c2b068fc378daa952ba7f163c4a11628f55a4df523b3ef60405160405180910390a45050565b600080600080612cb286600001866134a7565b915091508160001c8160001c8090509350935050509250929050565b6000612ce1846000018460001b84613540565b60001c90509392505050565b600081600001549050919050565b600073ffffffffffffffffffffffffffffffffffffffff168273ffffffffffffffffffffffffffffffffffffffff161415612d9e576040517f08c379a00000000000000000000000000000000000000000000000000000000081526004018080602001828103825260208152602001807f4552433732313a206d696e7420746f20746865207a65726f206164647265737381525060200191505060405180910390fd5b612da7816124f2565b15612e1a576040517f08c379a000000000000000000000000000000000000000000000000000000000815260040180806020018281038252601c8152602001807f4552433732313a20746f6b656e20616c7265616479206d696e7465640000000081525060200191505060405180910390fd5b612e2660008383613361565b612e7781600260008573ffffffffffffffffffffffffffffffffffffffff1673ffffffffffffffffffffffffffffffffffffffff16815260200190815260200160002061338b90919063ffffffff16565b50612e8e818360036133a59092919063ffffffff16565b50808273ffffffffffffffffffffffffffffffffffffffff16600073ffffffffffffffffffffffffffffffffffffffff167fddf252ad1be2c89b69c2b068fc378daa952ba7f163c4a11628f55a4df523b3ef60405160405180910390a45050565b6001816000016000828254019250508190555050565b6000612f1382600001613636565b9050919050565b600b60009054906101000a900460ff1615612f9d576040517f08c379a00000000000000000000000000000000000000000000000000000000081526004018080602001828103825260108152602001807f5061757361626c653a207061757365640000000000000000000000000000000081525060200191505060405180910390fd5b6001600b60006101000a81548160ff0219169083151502179055507f62e78cea01bee320cd4e420270b5ea74000d11b0c9f74754ebdbfc544b05a258612fe161250f565b604051808273ffffffffffffffffffffffffffffffffffffffff1673ffffffffffffffffffffffffffffffffffffffff16815260200191505060405180910390a1565b600061303383600001836133da565b60001c905092915050565b6000613066836000018373ffffffffffffffffffffffffffffffffffffffff1660001b613647565b905092915050565b6130798484846126d9565b6130858484848461366a565b6130da576040517f08c379a0000000000000000000000000000000000000000000000000000000008152600401808060200182810382526032815260200180613eb56032913960400191505060405180910390fd5b50505050565b60606000821415613128576040518060400160405280600181526020017f30000000000000000000000000000000000000000000000000000000000000008152509050613222565b600082905060005b60008214613152578080600101915050600a828161314a57fe5b049150613130565b60608167ffffffffffffffff8111801561316b57600080fd5b506040519080825280601f01601f19166020018201604052801561319e5781602001600182028036833780820191505090505b50905060006001830390508593505b6000841461321a57600a84816131bf57fe5b0660300160f81b828280600190039350815181106131d957fe5b60200101907effffffffffffffffffffffffffffffffffffffffffffffffffffffffffffff1916908160001a905350600a848161321257fe5b0493506131ad565b819450505050505b919050565b600061323582600001613636565b9050919050565b613245826124f2565b61329a576040517f08c379a000000000000000000000000000000000000000000000000000000000815260040180806020018281038252602c8152602001806140a4602c913960400191505060405180910390fd5b806009600084815260200190815260200160002090805190602001906132c1929190613d93565b505050565b60006132d28383613647565b61332b578260000182908060018154018082558091505060019003906000526020600020016000909190919091505582600001805490508360010160008481526020019081526020016000208190555060019050613330565b600090505b92915050565b6000613348836000018360001b61398d565b905092915050565b600081600001805490509050919050565b61336c8383836139b0565b505050565b6000613383836000018360001b613a1e565b905092915050565b600061339d836000018360001b6132c6565b905092915050565b60006133d1846000018460001b8473ffffffffffffffffffffffffffffffffffffffff1660001b613b06565b90509392505050565b60008183600001805490501161343b576040517f08c379a0000000000000000000000000000000000000000000000000000000008152600401808060200182810382526022815260200180613e396022913960400191505060405180910390fd5b82600001828154811061344a57fe5b9060005260206000200154905092915050565b6000613485836000018373ffffffffffffffffffffffffffffffffffffffff1660001b613a1e565b905092915050565b600061349f836000018360001b613be2565b905092915050565b60008082846000018054905011613509576040517f08c379a00000000000000000000000000000000000000000000000000000000081526004018080602001828103825260228152602001806140566022913960400191505060405180910390fd5b600084600001848154811061351a57fe5b906000526020600020906002020190508060000154816001015492509250509250929050565b60008084600101600085815260200190815260200160002054905060008114158390613607576040517f08c379a00000000000000000000000000000000000000000000000000000000081526004018080602001828103825283818151815260200191508051906020019080838360005b838110156135cc5780820151818401526020810190506135b1565b50505050905090810190601f1680156135f95780820380516001836020036101000a031916815260200191505b509250505060405180910390fd5b5084600001600182038154811061361a57fe5b9060005260206000209060020201600101549150509392505050565b600081600001805490509050919050565b600080836001016000848152602001908152602001600020541415905092915050565b600061368b8473ffffffffffffffffffffffffffffffffffffffff16613cfb565b6136985760019050613985565b600060608573ffffffffffffffffffffffffffffffffffffffff1663150b7a0260e01b6136c361250f565b898888604051602401808573ffffffffffffffffffffffffffffffffffffffff1673ffffffffffffffffffffffffffffffffffffffff1681526020018473ffffffffffffffffffffffffffffffffffffffff1673ffffffffffffffffffffffffffffffffffffffff16815260200183815260200180602001828103825283818151815260200191508051906020019080838360005b83811015613773578082015181840152602081019050613758565b50505050905090810190601f1680156137a05780820380516001836020036101000a031916815260200191505b5095505050505050604051602081830303815290604052907bffffffffffffffffffffffffffffffffffffffffffffffffffffffff19166020820180517bffffffffffffffffffffffffffffffffffffffffffffffffffffffff83818316178352505050506040518082805190602001908083835b602083106138385780518252602082019150602081019050602083039250613815565b6001836020036101000a0380198251168184511680821785525050505050509050019150506000604051808303816000865af19150503d806000811461389a576040519150601f19603f3d011682016040523d82523d6000602084013e61389f565b606091505b50915091508161390d576000815111156138bc5780518082602001fd5b6040517f08c379a0000000000000000000000000000000000000000000000000000000008152600401808060200182810382526032815260200180613eb56032913960400191505060405180910390fd5b600081806020019051602081101561392457600080fd5b8101908080519060200190929190505050905063150b7a0260e01b7bffffffffffffffffffffffffffffffffffffffffffffffffffffffff1916817bffffffffffffffffffffffffffffffffffffffffffffffffffffffff19161493505050505b949350505050565b600080836001016000848152602001908152602001600020541415905092915050565b6139bb838383613d46565b6139c3611511565b15613a19576040517f08c379a000000000000000000000000000000000000000000000000000000000815260040180806020018281038252602b815260200180613e5b602b913960400191505060405180910390fd5b505050565b60008083600101600084815260200190815260200160002054905060008114613afa5760006001820390506000600186600001805490500390506000866000018281548110613a6957fe5b9060005260206000200154905080876000018481548110613a8657fe5b9060005260206000200181905550600183018760010160008381526020019081526020016000208190555086600001805480613abe57fe5b60019003818190600052602060002001600090559055866001016000878152602001908152602001600020600090556001945050505050613b00565b60009150505b92915050565b6000808460010160008581526020019081526020016000205490506000811415613bad57846000016040518060400160405280868152602001858152509080600181540180825580915050600190039060005260206000209060020201600090919091909150600082015181600001556020820151816001015550508460000180549050856001016000868152602001908152602001600020819055506001915050613bdb565b82856000016001830381548110613bc057fe5b90600052602060002090600202016001018190555060009150505b9392505050565b60008083600101600084815260200190815260200160002054905060008114613cef5760006001820390506000600186600001805490500390506000866000018281548110613c2d57fe5b9060005260206000209060020201905080876000018481548110613c4d57fe5b9060005260206000209060020201600082015481600001556001820154816001015590505060018301876001016000836000015481526020019081526020016000208190555086600001805480613ca057fe5b6001900381819060005260206000209060020201600080820160009055600182016000905550509055866001016000878152602001908152602001600020600090556001945050505050613cf5565b60009150505b92915050565b60008060007fc5d2460186f7233c927e7db2dcc703c0e500b653ca82273b7bfad8045d85a47060001b9050833f9150808214158015613d3d57506000801b8214155b92505050919050565b505050565b50805460018160011615610100020316600290046000825580601f10613d715750613d90565b601f016020900490600052602060002090810190613d8f9190613e13565b5b50565b828054600181600116156101000203166002900490600052602060002090601f016020900481019282601f10613dd457805160ff1916838001178555613e02565b82800160010185558215613e02579182015b82811115613e01578251825591602001919060010190613de6565b5b509050613e0f9190613e13565b5090565b613e3591905b80821115613e31576000816000905550600101613e19565b5090565b9056fe456e756d657261626c655365743a20696e646578206f7574206f6620626f756e64734552433732315061757361626c653a20746f6b656e207472616e73666572207768696c6520706175736564416363657373436f6e74726f6c3a2073656e646572206d75737420626520616e2061646d696e20746f206772616e744552433732313a207472616e7366657220746f206e6f6e20455243373231526563656976657220696d706c656d656e7465724f776e61626c653a206e6577206f776e657220697320746865207a65726f20616464726573734552433732315072657365744d696e7465725061757365724175746f49643a206d75737420686176652070617573657220726f6c6520746f2070617573654552433732313a207472616e7366657220746f20746865207a65726f20616464726573734552433732313a206f70657261746f7220717565727920666f72206e6f6e6578697374656e7420746f6b656e416363657373436f6e74726f6c3a2073656e646572206d75737420626520616e2061646d696e20746f207265766f6b654552433732313a20617070726f76652063616c6c6572206973206e6f74206f776e6572206e6f7220617070726f76656420666f7220616c6c4552433732313a2062616c616e636520717565727920666f7220746865207a65726f20616464726573734552433732313a206f776e657220717565727920666f72206e6f6e6578697374656e7420746f6b656e456e756d657261626c654d61703a20696e646578206f7574206f6620626f756e64734552433732313a20617070726f76656420717565727920666f72206e6f6e6578697374656e7420746f6b656e4552433732314d657461646174613a2055524920736574206f66206e6f6e6578697374656e7420746f6b656e4552433732313a207472616e73666572206f6620746f6b656e2074686174206973206e6f74206f776e4552433732314d657461646174613a2055524920717565727920666f72206e6f6e6578697374656e7420746f6b656e4552433732313a20617070726f76616c20746f2063757272656e74206f776e65724552433732313a207472616e736665722063616c6c6572206973206e6f74206f776e6572206e6f7220617070726f7665644552433732315072657365744d696e7465725061757365724175746f49643a206d7573742068617665206d696e74657220726f6c6520746f206d696e744552433732314275726e61626c653a2063616c6c6572206973206e6f74206f776e6572206e6f7220617070726f7665644552433732315072657365744d696e7465725061757365724175746f49643a206d75737420686176652070617573657220726f6c6520746f20756e7061757365416363657373436f6e74726f6c3a2063616e206f6e6c792072656e6f756e636520726f6c657320666f722073656c66a264697066735822122023459ba016f52126cecbac6c386f6d1226bdbfc10754878ee3374b61f203956364736f6c634300060a0033",
  "source": "pragma solidity ^0.6.0;\r\n\r\nimport \"@openzeppelin/contracts/presets/ERC721PresetMinterPauserAutoId.sol\";\r\nimport \"@openzeppelin/contracts/access/Ownable.sol\";\r\n\r\ncontract YoYoToken is ERC721PresetMinterPauserAutoId, Ownable {\r\n    constructor()\r\n    \tpublic\r\n    \tERC721PresetMinterPauserAutoId(\r\n            \"YoYoYoToken\",\r\n            \"YOYO\",\r\n            \"https://ipfs.infura.io/ipfs/\"\r\n        )\r\n    {}\r\n\r\n    function mint(string memory ipfsHash) public onlyOwner {\r\n        uint256 _id = totalSupply();\r\n        _mint(msg.sender, _id);\r\n        _setTokenURI(_id, ipfsHash);\r\n    }\r\n\r\n    function exists(uint256 tokenId) public view returns (bool) {\r\n        return _exists(tokenId);\r\n    }\r\n}",
  "sourcePath": "/mnt/c/Users/lfege/Code/ipfs-nft-sandbox/src/contracts/YoYoToken.sol",
  "compiler": {
    "name": "solc",
    "version": "0.6.10+commit.00c0fcaf.Emscripten.clang"
  },
  "schemaVersion": "3.0.23",
  "updatedAt": "2020-06-18T12:08:39.705Z",
  "networkType": "ethereum",
  "devdoc": {
    "methods": {
      "approve(address,uint256)": {
        "details": "Approves another address to transfer the given token ID The zero address indicates there is no approved address. There can only be one approved address per token at a given time. Can only be called by the token owner or an approved operator.",
        "params": {
          "to": "address to be approved for the given token ID",
          "tokenId": "uint256 ID of the token to be approved"
        }
      },
      "balanceOf(address)": {
        "details": "Gets the balance of the specified address.",
        "params": {
          "owner": "address to query the balance of"
        },
        "returns": {
          "_0": "uint256 representing the amount owned by the passed address"
        }
      },
      "baseURI()": {
        "details": "Returns the base URI set via {_setBaseURI}. This will be automatically added as a prefix in {tokenURI} to each token's URI, or to the token ID if no specific URI is set for that token ID."
      },
      "burn(uint256)": {
        "details": "Burns a specific ERC721 token.",
        "params": {
          "tokenId": "uint256 id of the ERC721 token to be burned."
        }
      },
      "getApproved(uint256)": {
        "details": "Gets the approved address for a token ID, or zero if no address set Reverts if the token ID does not exist.",
        "params": {
          "tokenId": "uint256 ID of the token to query the approval of"
        },
        "returns": {
          "_0": "address currently approved for the given token ID"
        }
      },
      "getRoleAdmin(bytes32)": {
        "details": "Returns the admin role that controls `role`. See {grantRole} and {revokeRole}. To change a role's admin, use {_setRoleAdmin}."
      },
      "getRoleMember(bytes32,uint256)": {
        "details": "Returns one of the accounts that have `role`. `index` must be a value between 0 and {getRoleMemberCount}, non-inclusive. Role bearers are not sorted in any particular way, and their ordering may change at any point. WARNING: When using {getRoleMember} and {getRoleMemberCount}, make sure you perform all queries on the same block. See the following https://forum.openzeppelin.com/t/iterating-over-elements-on-enumerableset-in-openzeppelin-contracts/2296[forum post] for more information."
      },
      "getRoleMemberCount(bytes32)": {
        "details": "Returns the number of accounts that have `role`. Can be used together with {getRoleMember} to enumerate all bearers of a role."
      },
      "grantRole(bytes32,address)": {
        "details": "Grants `role` to `account`. If `account` had not been already granted `role`, emits a {RoleGranted} event. Requirements: - the caller must have ``role``'s admin role."
      },
      "hasRole(bytes32,address)": {
        "details": "Returns `true` if `account` has been granted `role`."
      },
      "isApprovedForAll(address,address)": {
        "details": "Tells whether an operator is approved by a given owner.",
        "params": {
          "operator": "operator address which you want to query the approval of",
          "owner": "owner address which you want to query the approval of"
        },
        "returns": {
          "_0": "bool whether the given operator is approved by the given owner"
        }
      },
      "mint(address)": {
        "details": "Creates a new token for `to`. Its token ID will be automatically assigned (and available on the emitted {IERC721-Transfer} event), and the token URI autogenerated based on the base URI passed at construction. See {ERC721-_mint}. Requirements: - the caller must have the `MINTER_ROLE`."
      },
      "name()": {
        "details": "Gets the token name.",
        "returns": {
          "_0": "string representing the token name"
        }
      },
      "owner()": {
        "details": "Returns the address of the current owner."
      },
      "ownerOf(uint256)": {
        "details": "Gets the owner of the specified token ID.",
        "params": {
          "tokenId": "uint256 ID of the token to query the owner of"
        },
        "returns": {
          "_0": "address currently marked as the owner of the given token ID"
        }
      },
      "pause()": {
        "details": "Pauses all token transfers. See {ERC721Pausable} and {Pausable-_pause}. Requirements: - the caller must have the `PAUSER_ROLE`."
      },
      "paused()": {
        "details": "Returns true if the contract is paused, and false otherwise."
      },
      "renounceOwnership()": {
        "details": "Leaves the contract without owner. It will not be possible to call `onlyOwner` functions anymore. Can only be called by the current owner. NOTE: Renouncing ownership will leave the contract without an owner, thereby removing any functionality that is only available to the owner."
      },
      "renounceRole(bytes32,address)": {
        "details": "Revokes `role` from the calling account. Roles are often managed via {grantRole} and {revokeRole}: this function's purpose is to provide a mechanism for accounts to lose their privileges if they are compromised (such as when a trusted device is misplaced). If the calling account had been granted `role`, emits a {RoleRevoked} event. Requirements: - the caller must be `account`."
      },
      "revokeRole(bytes32,address)": {
        "details": "Revokes `role` from `account`. If `account` had been granted `role`, emits a {RoleRevoked} event. Requirements: - the caller must have ``role``'s admin role."
      },
      "safeTransferFrom(address,address,uint256)": {
        "details": "Safely transfers the ownership of a given token ID to another address If the target address is a contract, it must implement {IERC721Receiver-onERC721Received}, which is called upon a safe transfer, and return the magic value `bytes4(keccak256(\"onERC721Received(address,address,uint256,bytes)\"))`; otherwise, the transfer is reverted. Requires the msg.sender to be the owner, approved, or operator",
        "params": {
          "from": "current owner of the token",
          "to": "address to receive the ownership of the given token ID",
          "tokenId": "uint256 ID of the token to be transferred"
        }
      },
      "safeTransferFrom(address,address,uint256,bytes)": {
        "details": "Safely transfers the ownership of a given token ID to another address If the target address is a contract, it must implement {IERC721Receiver-onERC721Received}, which is called upon a safe transfer, and return the magic value `bytes4(keccak256(\"onERC721Received(address,address,uint256,bytes)\"))`; otherwise, the transfer is reverted. Requires the _msgSender() to be the owner, approved, or operator",
        "params": {
          "_data": "bytes data to send along with a safe transfer check",
          "from": "current owner of the token",
          "to": "address to receive the ownership of the given token ID",
          "tokenId": "uint256 ID of the token to be transferred"
        }
      },
      "setApprovalForAll(address,bool)": {
        "details": "Sets or unsets the approval of a given operator An operator is allowed to transfer all tokens of the sender on their behalf.",
        "params": {
          "approved": "representing the status of the approval to be set",
          "operator": "operator address to set the approval"
        }
      },
      "supportsInterface(bytes4)": {
        "details": "See {IERC165-supportsInterface}. Time complexity O(1), guaranteed to always use less than 30 000 gas."
      },
      "symbol()": {
        "details": "Gets the token symbol.",
        "returns": {
          "_0": "string representing the token symbol"
        }
      },
      "tokenByIndex(uint256)": {
        "details": "Gets the token ID at a given index of all the tokens in this contract Reverts if the index is greater or equal to the total number of tokens.",
        "params": {
          "index": "uint256 representing the index to be accessed of the tokens list"
        },
        "returns": {
          "_0": "uint256 token ID at the given index of the tokens list"
        }
      },
      "tokenOfOwnerByIndex(address,uint256)": {
        "details": "Gets the token ID at a given index of the tokens list of the requested owner.",
        "params": {
          "index": "uint256 representing the index to be accessed of the requested tokens list",
          "owner": "address owning the tokens list to be accessed"
        },
        "returns": {
          "_0": "uint256 token ID at the given index of the tokens list owned by the requested address"
        }
      },
      "tokenURI(uint256)": {
        "details": "Returns the URI for a given token ID. May return an empty string. If a base URI is set (via {_setBaseURI}), it is added as a prefix to the token's own URI (via {_setTokenURI}). If there is a base URI but no token URI, the token's ID will be used as its URI when appending it to the base URI. This pattern for autogenerated token URIs can lead to large gas savings. .Examples |=== |`_setBaseURI()` |`_setTokenURI()` |`tokenURI()` | \"\" | \"\" | \"\" | \"\" | \"token.uri/123\" | \"token.uri/123\" | \"token.uri/\" | \"123\" | \"token.uri/123\" | \"token.uri/\" | \"\" | \"token.uri/<tokenId>\" |=== Requirements: - `tokenId` must exist."
      },
      "totalSupply()": {
        "details": "Gets the total amount of tokens stored by the contract.",
        "returns": {
          "_0": "uint256 representing the total amount of tokens"
        }
      },
      "transferFrom(address,address,uint256)": {
        "details": "Transfers the ownership of a given token ID to another address. Usage of this method is discouraged, use {safeTransferFrom} whenever possible. Requires the msg.sender to be the owner, approved, or operator.",
        "params": {
          "from": "current owner of the token",
          "to": "address to receive the ownership of the given token ID",
          "tokenId": "uint256 ID of the token to be transferred"
        }
      },
      "transferOwnership(address)": {
        "details": "Transfers ownership of the contract to a new account (`newOwner`). Can only be called by the current owner."
      },
      "unpause()": {
        "details": "Unpauses all token transfers. See {ERC721Pausable} and {Pausable-_unpause}. Requirements: - the caller must have the `PAUSER_ROLE`."
      }
    }
  },
  "userdoc": {
    "methods": {}
  }
}